{
  "_format": "hh-sol-artifact-1",
  "contractName": "ClubhouseVault",
  "sourceName": "contracts/ClubhouseVault.sol",
  "abi": [
    {
      "inputs": [
        {
          "internalType": "address",
          "name": "_tokenAddress",
          "type": "address"
        }
      ],
      "stateMutability": "nonpayable",
      "type": "constructor"
    },
    {
      "inputs": [],
      "name": "ECDSAInvalidSignature",
      "type": "error"
    },
    {
      "inputs": [
        {
          "internalType": "uint256",
          "name": "length",
          "type": "uint256"
        }
      ],
      "name": "ECDSAInvalidSignatureLength",
      "type": "error"
    },
    {
      "inputs": [
        {
          "internalType": "bytes32",
          "name": "s",
          "type": "bytes32"
        }
      ],
      "name": "ECDSAInvalidSignatureS",
      "type": "error"
    },
    {
      "inputs": [
        {
          "internalType": "address",
          "name": "owner",
          "type": "address"
        }
      ],
      "name": "OwnableInvalidOwner",
      "type": "error"
    },
    {
      "inputs": [
        {
          "internalType": "address",
          "name": "account",
          "type": "address"
        }
      ],
      "name": "OwnableUnauthorizedAccount",
      "type": "error"
    },
    {
      "inputs": [],
      "name": "ReentrancyGuardReentrantCall",
      "type": "error"
    },
    {
      "anonymous": false,
      "inputs": [
        {
          "indexed": true,
          "internalType": "address",
          "name": "to",
          "type": "address"
        },
        {
          "indexed": false,
          "internalType": "uint256",
          "name": "amount",
          "type": "uint256"
        }
      ],
      "name": "EmergencyWithdrawal",
      "type": "event"
    },
    {
      "anonymous": false,
      "inputs": [
        {
          "indexed": false,
          "internalType": "address[]",
          "name": "newOwners",
          "type": "address[]"
        },
        {
          "indexed": false,
          "internalType": "uint256",
          "name": "minApprovals",
          "type": "uint256"
        }
      ],
      "name": "MultiSigOwnersUpdated",
      "type": "event"
    },
    {
      "anonymous": false,
      "inputs": [
        {
          "indexed": true,
          "internalType": "address",
          "name": "previousOwner",
          "type": "address"
        },
        {
          "indexed": true,
          "internalType": "address",
          "name": "newOwner",
          "type": "address"
        }
      ],
      "name": "OwnershipTransferred",
      "type": "event"
    },
    {
      "anonymous": false,
      "inputs": [
        {
          "indexed": true,
          "internalType": "address",
          "name": "user",
          "type": "address"
        },
        {
          "indexed": false,
          "internalType": "uint256",
          "name": "amount",
          "type": "uint256"
        }
      ],
      "name": "TokensDeposited",
      "type": "event"
    },
    {
      "anonymous": false,
      "inputs": [
        {
          "indexed": false,
          "internalType": "uint256",
          "name": "amount",
          "type": "uint256"
        }
      ],
      "name": "TournamentFeesCollected",
      "type": "event"
    },
    {
      "anonymous": false,
      "inputs": [
        {
          "indexed": true,
          "internalType": "address",
          "name": "admin",
          "type": "address"
        },
        {
          "indexed": false,
          "internalType": "uint256",
          "name": "amount",
          "type": "uint256"
        }
      ],
      "name": "TournamentFeesWithdrawn",
      "type": "event"
    },
    {
      "anonymous": false,
      "inputs": [
        {
          "indexed": true,
          "internalType": "address",
          "name": "oldSigner",
          "type": "address"
        },
        {
          "indexed": true,
          "internalType": "address",
          "name": "newSigner",
          "type": "address"
        }
      ],
      "name": "TrustedSignerUpdated",
      "type": "event"
    },
    {
      "anonymous": false,
      "inputs": [
        {
          "indexed": true,
          "internalType": "address",
          "name": "user",
          "type": "address"
        },
        {
          "indexed": false,
          "internalType": "uint256",
          "name": "amount",
          "type": "uint256"
        }
      ],
      "name": "WinningWithdrawn",
      "type": "event"
    },
    {
      "anonymous": false,
      "inputs": [
        {
          "indexed": true,
          "internalType": "address",
          "name": "user",
          "type": "address"
        },
        {
          "indexed": false,
          "internalType": "uint256",
          "name": "amount",
          "type": "uint256"
        },
        {
          "indexed": false,
          "internalType": "uint256",
          "name": "nonce",
          "type": "uint256"
        }
      ],
      "name": "WithdrawalWithSignature",
      "type": "event"
    },
    {
      "inputs": [
        {
          "internalType": "uint256",
          "name": "amount",
          "type": "uint256"
        }
      ],
      "name": "collectTournamentFee",
      "outputs": [],
      "stateMutability": "nonpayable",
      "type": "function"
    },
    {
      "inputs": [],
      "name": "contractBalance",
      "outputs": [
        {
          "internalType": "uint256",
          "name": "",
          "type": "uint256"
        }
      ],
      "stateMutability": "view",
      "type": "function"
    },
    {
      "inputs": [
        {
          "internalType": "address",
          "name": "caller",
          "type": "address"
        },
        {
          "internalType": "uint256",
          "name": "amount",
          "type": "uint256"
        }
      ],
      "name": "deposit",
      "outputs": [],
      "stateMutability": "nonpayable",
      "type": "function"
    },
    {
      "inputs": [
        {
          "internalType": "address",
          "name": "",
          "type": "address"
        }
      ],
      "name": "depositedTokens",
      "outputs": [
        {
          "internalType": "uint256",
          "name": "",
          "type": "uint256"
        }
      ],
      "stateMutability": "view",
      "type": "function"
    },
    {
      "inputs": [
        {
          "internalType": "address",
          "name": "to",
          "type": "address"
        },
        {
          "internalType": "uint256",
          "name": "amount",
          "type": "uint256"
        },
        {
          "internalType": "bytes[]",
          "name": "signatures",
          "type": "bytes[]"
        }
      ],
      "name": "emergencyWithdrawMultiSig",
      "outputs": [],
      "stateMutability": "nonpayable",
      "type": "function"
    },
    {
      "inputs": [
        {
          "internalType": "address",
          "name": "user",
          "type": "address"
        }
      ],
      "name": "getBalance",
      "outputs": [
        {
          "internalType": "uint256",
          "name": "",
          "type": "uint256"
        }
      ],
      "stateMutability": "view",
      "type": "function"
    },
    {
      "inputs": [
        {
          "internalType": "address",
          "name": "to",
          "type": "address"
        },
        {
          "internalType": "uint256",
          "name": "amount",
          "type": "uint256"
        }
      ],
      "name": "getEmergencyWithdrawHash",
      "outputs": [
        {
          "internalType": "bytes32",
          "name": "",
          "type": "bytes32"
        }
      ],
      "stateMutability": "view",
      "type": "function"
    },
    {
      "inputs": [
        {
          "internalType": "address",
          "name": "user",
          "type": "address"
        },
        {
          "internalType": "uint256",
          "name": "amount",
          "type": "uint256"
        },
        {
          "internalType": "uint256",
          "name": "nonce",
          "type": "uint256"
        },
        {
          "internalType": "uint256",
          "name": "expiry",
          "type": "uint256"
        }
      ],
      "name": "getWithdrawWithSignatureHash",
      "outputs": [
        {
          "internalType": "bytes32",
          "name": "",
          "type": "bytes32"
        }
      ],
      "stateMutability": "view",
      "type": "function"
    },
    {
      "inputs": [],
      "name": "minApprovals",
      "outputs": [
        {
          "internalType": "uint256",
          "name": "",
          "type": "uint256"
        }
      ],
      "stateMutability": "view",
      "type": "function"
    },
    {
      "inputs": [
        {
          "internalType": "uint256",
          "name": "",
          "type": "uint256"
        }
      ],
      "name": "multiSigOwners",
      "outputs": [
        {
          "internalType": "address",
          "name": "",
          "type": "address"
        }
      ],
      "stateMutability": "view",
      "type": "function"
    },
    {
      "inputs": [],
      "name": "owner",
      "outputs": [
        {
          "internalType": "address",
          "name": "",
          "type": "address"
        }
      ],
      "stateMutability": "view",
      "type": "function"
    },
    {
      "inputs": [],
      "name": "renounceOwnership",
      "outputs": [],
      "stateMutability": "nonpayable",
      "type": "function"
    },
    {
      "inputs": [
        {
          "internalType": "address[]",
          "name": "owners",
          "type": "address[]"
        },
        {
          "internalType": "uint256",
          "name": "_minApprovals",
          "type": "uint256"
        }
      ],
      "name": "setMultiSigOwners",
      "outputs": [],
      "stateMutability": "nonpayable",
      "type": "function"
    },
    {
      "inputs": [
        {
          "internalType": "address",
          "name": "_trustedSigner",
          "type": "address"
        }
      ],
      "name": "setTrustedSigner",
      "outputs": [],
      "stateMutability": "nonpayable",
      "type": "function"
    },
    {
      "inputs": [],
      "name": "tmkocToken",
      "outputs": [
        {
          "internalType": "contract IERC20",
          "name": "",
          "type": "address"
        }
      ],
      "stateMutability": "view",
      "type": "function"
    },
    {
      "inputs": [],
      "name": "totalTournamentFees",
      "outputs": [
        {
          "internalType": "uint256",
          "name": "",
          "type": "uint256"
        }
      ],
      "stateMutability": "view",
      "type": "function"
    },
    {
      "inputs": [
        {
          "internalType": "address",
          "name": "newOwner",
          "type": "address"
        }
      ],
      "name": "transferOwnership",
      "outputs": [],
      "stateMutability": "nonpayable",
      "type": "function"
    },
    {
      "inputs": [],
      "name": "trustedSigner",
      "outputs": [
        {
          "internalType": "address",
          "name": "",
          "type": "address"
        }
      ],
      "stateMutability": "view",
      "type": "function"
    },
    {
      "inputs": [
        {
          "internalType": "uint256",
          "name": "",
          "type": "uint256"
        }
      ],
      "name": "usedNonces",
      "outputs": [
        {
          "internalType": "bool",
          "name": "",
          "type": "bool"
        }
      ],
      "stateMutability": "view",
      "type": "function"
    },
    {
      "inputs": [
        {
          "internalType": "address",
          "name": "to",
          "type": "address"
        },
        {
          "internalType": "uint256",
          "name": "amount",
          "type": "uint256"
        }
      ],
      "name": "withdrawTournamentFees",
      "outputs": [],
      "stateMutability": "nonpayable",
      "type": "function"
    },
    {
      "inputs": [
        {
          "internalType": "uint256",
          "name": "amount",
          "type": "uint256"
        },
        {
          "internalType": "uint256",
          "name": "nonce",
          "type": "uint256"
        },
        {
          "internalType": "uint256",
          "name": "expiry",
          "type": "uint256"
        },
        {
          "internalType": "bytes",
          "name": "signature",
          "type": "bytes"
        }
      ],
      "name": "withdrawWithSignature",
      "outputs": [],
      "stateMutability": "nonpayable",
      "type": "function"
    },
    {
      "inputs": [
        {
          "internalType": "uint256",
          "name": "amount",
          "type": "uint256"
        }
      ],
      "name": "withdrawWithdrawableWinning",
      "outputs": [],
      "stateMutability": "nonpayable",
      "type": "function"
    }
  ],
  "bytecode": "0x608060405234801561001057600080fd5b506040516136b53803806136b58339818101604052810190610032919061022d565b336001600081905550600073ffffffffffffffffffffffffffffffffffffffff168173ffffffffffffffffffffffffffffffffffffffff16036100ad5760006040517f1e4fbdf70000000000000000000000000000000000000000000000000000000081526004016100a49190610269565b60405180910390fd5b6100bc8161010460201b60201c565b5080600260006101000a81548173ffffffffffffffffffffffffffffffffffffffff021916908373ffffffffffffffffffffffffffffffffffffffff16021790555050610284565b6000600160009054906101000a900473ffffffffffffffffffffffffffffffffffffffff16905081600160006101000a81548173ffffffffffffffffffffffffffffffffffffffff021916908373ffffffffffffffffffffffffffffffffffffffff1602179055508173ffffffffffffffffffffffffffffffffffffffff168173ffffffffffffffffffffffffffffffffffffffff167f8be0079c531659141344cd1fd0a4f28419497f9722a3daafe3b4186f6b6457e060405160405180910390a35050565b600080fd5b600073ffffffffffffffffffffffffffffffffffffffff82169050919050565b60006101fa826101cf565b9050919050565b61020a816101ef565b811461021557600080fd5b50565b60008151905061022781610201565b92915050565b600060208284031215610243576102426101ca565b5b600061025184828501610218565b91505092915050565b610263816101ef565b82525050565b600060208201905061027e600083018461025a565b92915050565b613422806102936000396000f3fe608060405234801561001057600080fd5b50600436106101425760003560e01c806373c172de116100b8578063c326bf4f1161007c578063c326bf4f1461034d578063d40086961461037d578063d830970614610399578063f2fde38b146103b7578063f74d5480146103d3578063f8b2cb4f146103f157610142565b806373c172de146102bb5780638b7afe2e146102d75780638da5cb5b146102f55780639e7cc49b14610313578063bb553a9f1461033157610142565b80634ff5e6ba1161010a5780634ff5e6ba146101e957806356a1c701146102195780636603a7b2146102355780636717e41c146102655780636d6255c714610295578063715018a6146102b157610142565b806301ec4ef91461014757806321d94df9146101775780633c9eddf71461019357806347e7ef24146101af5780634e105ec7146101cb575b600080fd5b610161600480360381019061015c9190612191565b610421565b60405161016e9190612211565b60405180910390f35b610191600480360381019061018c9190612291565b610469565b005b6101ad60048036038101906101a891906122f1565b610562565b005b6101c960048036038101906101c491906122f1565b61070e565b005b6101d361095f565b6040516101e09190612390565b60405180910390f35b61020360048036038101906101fe91906122f1565b610985565b6040516102109190612211565b60405180910390f35b610233600480360381019061022e91906123ab565b6109c7565b005b61024f600480360381019061024a91906123d8565b610afe565b60405161025c9190612414565b60405180910390f35b61027f600480360381019061027a91906123d8565b610b3d565b60405161028c919061244a565b60405180910390f35b6102af60048036038101906102aa91906123d8565b610b5d565b005b6102b9610bfb565b005b6102d560048036038101906102d091906124bb565b610c0f565b005b6102df6110b9565b6040516102ec9190612552565b60405180910390f35b6102fd61115c565b60405161030a9190612414565b60405180910390f35b61031b611186565b6040516103289190612552565b60405180910390f35b61034b600480360381019061034691906123d8565b61118c565b005b610367600480360381019061036291906123ab565b6113ed565b6040516103749190612552565b60405180910390f35b610397600480360381019061039291906125c3565b611405565b005b6103a1611982565b6040516103ae9190612552565b60405180910390f35b6103d160048036038101906103cc91906123ab565b611988565b005b6103db611a0e565b6040516103e89190612414565b60405180910390f35b61040b600480360381019061040691906123ab565b611a34565b6040516104189190612552565b60405180910390f35b600080858585853060405160200161043d9594939291906126a0565b60405160208183030381529060405280519060200120905061045e81611ad9565b915050949350505050565b610471611b09565b600083839050116104b7576040517f08c379a00000000000000000000000000000000000000000000000000000000081526004016104ae9061275c565b60405180910390fd5b6000811180156104ca5750828290508111155b610509576040517f08c379a0000000000000000000000000000000000000000000000000000000008152600401610500906127c8565b60405180910390fd5b82826004919061051a929190612036565b50806005819055507f676b48f8ece603d24ff4190a55ea501f01000e70bcfc0a9c8546ad07dcdd2fd4838383604051610555939291906128ab565b60405180910390a1505050565b61056a611b09565b610572611b90565b600081116105b5576040517f08c379a00000000000000000000000000000000000000000000000000000000081526004016105ac90612929565b60405180910390fd5b6006548111156105fa576040517f08c379a00000000000000000000000000000000000000000000000000000000081526004016105f190612995565b60405180910390fd5b806006600082825461060c91906129e4565b92505081905550600260009054906101000a900473ffffffffffffffffffffffffffffffffffffffff1673ffffffffffffffffffffffffffffffffffffffff1663a9059cbb83836040518363ffffffff1660e01b8152600401610670929190612a18565b6020604051808303816000875af115801561068f573d6000803e3d6000fd5b505050506040513d601f19601f820116820180604052508101906106b39190612a6d565b508173ffffffffffffffffffffffffffffffffffffffff167ff327d1b2d15a0f7936567e44a9a981c20e6776135a84b25e0d826a3f6e0e5779826040516106fa9190612552565b60405180910390a261070a611bd6565b5050565b610716611b90565b60008111610759576040517f08c379a000000000000000000000000000000000000000000000000000000000815260040161075090612929565b60405180910390fd5b600073ffffffffffffffffffffffffffffffffffffffff168273ffffffffffffffffffffffffffffffffffffffff16036107c8576040517f08c379a00000000000000000000000000000000000000000000000000000000081526004016107bf90612ae6565b60405180910390fd5b6000600260009054906101000a900473ffffffffffffffffffffffffffffffffffffffff1673ffffffffffffffffffffffffffffffffffffffff166323b872dd8430856040518463ffffffff1660e01b815260040161082993929190612b06565b6020604051808303816000875af1158015610848573d6000803e3d6000fd5b505050506040513d601f19601f8201168201806040525081019061086c9190612a6d565b9050806108ae576040517f08c379a00000000000000000000000000000000000000000000000000000000081526004016108a590612b89565b60405180910390fd5b81600760008573ffffffffffffffffffffffffffffffffffffffff1673ffffffffffffffffffffffffffffffffffffffff16815260200190815260200160002060008282546108fd9190612ba9565b925050819055508273ffffffffffffffffffffffffffffffffffffffff167f59062170a285eb80e8c6b8ced60428442a51910635005233fc4ce084a475845e8360405161094a9190612552565b60405180910390a25061095b611bd6565b5050565b600260009054906101000a900473ffffffffffffffffffffffffffffffffffffffff1681565b60008083833060405160200161099d93929190612c34565b6040516020818303038152906040528051906020012090506109be81611ad9565b91505092915050565b6109cf611b09565b600073ffffffffffffffffffffffffffffffffffffffff168173ffffffffffffffffffffffffffffffffffffffff1603610a3e576040517f08c379a0000000000000000000000000000000000000000000000000000000008152600401610a3590612cc8565b60405180910390fd5b8073ffffffffffffffffffffffffffffffffffffffff16600360009054906101000a900473ffffffffffffffffffffffffffffffffffffffff1673ffffffffffffffffffffffffffffffffffffffff167f4a297cf5d32586f80d2b0708a39d2da1f46e6ae7722171e1c51dfd685b5b8aa860405160405180910390a380600360006101000a81548173ffffffffffffffffffffffffffffffffffffffff021916908373ffffffffffffffffffffffffffffffffffffffff16021790555050565b60048181548110610b0e57600080fd5b906000526020600020016000915054906101000a900473ffffffffffffffffffffffffffffffffffffffff1681565b60086020528060005260406000206000915054906101000a900460ff1681565b610b65611b09565b60008111610ba8576040517f08c379a0000000000000000000000000000000000000000000000000000000008152600401610b9f90612929565b60405180910390fd5b8060066000828254610bba9190612ba9565b925050819055507f104a61272b62ef866242b3a3f3ea8d18de122e5f020f54b6c10f9bba497428bd81604051610bf09190612552565b60405180910390a150565b610c03611b09565b610c0d6000611be0565b565b610c17611b90565b82421115610c5a576040517f08c379a0000000000000000000000000000000000000000000000000000000008152600401610c5190612d34565b60405180910390fd5b6008600085815260200190815260200160002060009054906101000a900460ff1615610cbb576040517f08c379a0000000000000000000000000000000000000000000000000000000008152600401610cb290612da0565b60405180910390fd5b84600260009054906101000a900473ffffffffffffffffffffffffffffffffffffffff1673ffffffffffffffffffffffffffffffffffffffff166370a08231306040518263ffffffff1660e01b8152600401610d179190612414565b602060405180830381865afa158015610d34573d6000803e3d6000fd5b505050506040513d601f19601f82011682018060405250810190610d589190612dd5565b1015610d99576040517f08c379a0000000000000000000000000000000000000000000000000000000008152600401610d9090612e4e565b60405180910390fd5b600073ffffffffffffffffffffffffffffffffffffffff16600360009054906101000a900473ffffffffffffffffffffffffffffffffffffffff1673ffffffffffffffffffffffffffffffffffffffff1603610e2a576040517f08c379a0000000000000000000000000000000000000000000000000000000008152600401610e2190612eba565b60405180910390fd5b60016008600086815260200190815260200160002060006101000a81548160ff02191690831515021790555060003386868630604051602001610e719594939291906126a0565b6040516020818303038152906040528051906020012090506000610e9482611ad9565b90506000610ee68286868080601f016020809104026020016040519081016040528093929190818152602001838380828437600081840152601f19601f82011690508083019250505050505050611ca6565b9050600360009054906101000a900473ffffffffffffffffffffffffffffffffffffffff1673ffffffffffffffffffffffffffffffffffffffff168173ffffffffffffffffffffffffffffffffffffffff1614610f78576040517f08c379a0000000000000000000000000000000000000000000000000000000008152600401610f6f90612f26565b60405180910390fd5b600260009054906101000a900473ffffffffffffffffffffffffffffffffffffffff1673ffffffffffffffffffffffffffffffffffffffff1663a9059cbb338a6040518363ffffffff1660e01b8152600401610fd5929190612a18565b6020604051808303816000875af1158015610ff4573d6000803e3d6000fd5b505050506040513d601f19601f820116820180604052508101906110189190612a6d565b611057576040517f08c379a000000000000000000000000000000000000000000000000000000000815260040161104e90612b89565b60405180910390fd5b3373ffffffffffffffffffffffffffffffffffffffff167f2a8fba2096b8ec3e3c7271e0ee9774e16ae4308fdcce7399cf6d3390206f924c898960405161109f929190612f46565b60405180910390a25050506110b2611bd6565b5050505050565b6000600260009054906101000a900473ffffffffffffffffffffffffffffffffffffffff1673ffffffffffffffffffffffffffffffffffffffff166370a08231306040518263ffffffff1660e01b81526004016111169190612414565b602060405180830381865afa158015611133573d6000803e3d6000fd5b505050506040513d601f19601f820116820180604052508101906111579190612dd5565b905090565b6000600160009054906101000a900473ffffffffffffffffffffffffffffffffffffffff16905090565b60065481565b611194611b90565b600081116111d7576040517f08c379a00000000000000000000000000000000000000000000000000000000081526004016111ce90612929565b60405180910390fd5b80600260009054906101000a900473ffffffffffffffffffffffffffffffffffffffff1673ffffffffffffffffffffffffffffffffffffffff166370a08231306040518263ffffffff1660e01b81526004016112339190612414565b602060405180830381865afa158015611250573d6000803e3d6000fd5b505050506040513d601f19601f820116820180604052508101906112749190612dd5565b10156112b5576040517f08c379a00000000000000000000000000000000000000000000000000000000081526004016112ac90612e4e565b60405180910390fd5b600260009054906101000a900473ffffffffffffffffffffffffffffffffffffffff1673ffffffffffffffffffffffffffffffffffffffff1663a9059cbb33836040518363ffffffff1660e01b8152600401611312929190612a18565b6020604051808303816000875af1158015611331573d6000803e3d6000fd5b505050506040513d601f19601f820116820180604052508101906113559190612a6d565b611394576040517f08c379a000000000000000000000000000000000000000000000000000000000815260040161138b90612b89565b60405180910390fd5b3373ffffffffffffffffffffffffffffffffffffffff167fe57e58099e87e30fcdea5b38b1248150b0435bb29b69bc72cf1139c063d272bd826040516113da9190612552565b60405180910390a26113ea611bd6565b50565b60076020528060005260406000206000915090505481565b61140d611b90565b600073ffffffffffffffffffffffffffffffffffffffff168473ffffffffffffffffffffffffffffffffffffffff160361147c576040517f08c379a000000000000000000000000000000000000000000000000000000000815260040161147390612fbb565b60405180910390fd5b600083116114bf576040517f08c379a00000000000000000000000000000000000000000000000000000000081526004016114b690613027565b60405180910390fd5b82600260009054906101000a900473ffffffffffffffffffffffffffffffffffffffff1673ffffffffffffffffffffffffffffffffffffffff166370a08231306040518263ffffffff1660e01b815260040161151b9190612414565b602060405180830381865afa158015611538573d6000803e3d6000fd5b505050506040513d601f19601f8201168201806040525081019061155c9190612dd5565b101561159d576040517f08c379a000000000000000000000000000000000000000000000000000000000815260040161159490613093565b60405180910390fd5b60006005541180156115b6575060048054905060055411155b6115f5576040517f08c379a00000000000000000000000000000000000000000000000000000000081526004016115ec906130ff565b60405180910390fd5b600084843060405160200161160c93929190612c34565b604051602081830303815290604052805190602001209050600061162f82611ad9565b905060008060048054905067ffffffffffffffff8111156116535761165261311f565b5b6040519080825280602002602001820160405280156116815781602001602082028036833780820191505090505b50905060005b868690508110156117f7576000611705858989858181106116ab576116aa61314e565b5b90506020028101906116bd919061318c565b8080601f016020809104026020016040519081016040528093929190818152602001838380828437600081840152601f19601f82011690508083019250505050505050611ca6565b905061171081611cd2565b156117e9576000805b85811015611784578273ffffffffffffffffffffffffffffffffffffffff1685828151811061174b5761174a61314e565b5b602002602001015173ffffffffffffffffffffffffffffffffffffffff16036117775760019150611784565b8080600101915050611719565b50806117e7578184868151811061179e5761179d61314e565b5b602002602001019073ffffffffffffffffffffffffffffffffffffffff16908173ffffffffffffffffffffffffffffffffffffffff168152505084806117e3906131ef565b9550505b505b508080600101915050611687565b5060055482101561183d576040517f08c379a0000000000000000000000000000000000000000000000000000000008152600401611834906132a9565b60405180910390fd5b6000600260009054906101000a900473ffffffffffffffffffffffffffffffffffffffff1673ffffffffffffffffffffffffffffffffffffffff1663a9059cbb8a8a6040518363ffffffff1660e01b815260040161189c929190612a18565b6020604051808303816000875af11580156118bb573d6000803e3d6000fd5b505050506040513d601f19601f820116820180604052508101906118df9190612a6d565b905080611921576040517f08c379a000000000000000000000000000000000000000000000000000000000815260040161191890612b89565b60405180910390fd5b8873ffffffffffffffffffffffffffffffffffffffff167f23d6711a1d031134a36921253c75aa59e967d38e369ac625992824315e204f20896040516119679190612552565b60405180910390a2505050505061197c611bd6565b50505050565b60055481565b611990611b09565b600073ffffffffffffffffffffffffffffffffffffffff168173ffffffffffffffffffffffffffffffffffffffff1603611a025760006040517f1e4fbdf70000000000000000000000000000000000000000000000000000000081526004016119f99190612414565b60405180910390fd5b611a0b81611be0565b50565b600360009054906101000a900473ffffffffffffffffffffffffffffffffffffffff1681565b6000600260009054906101000a900473ffffffffffffffffffffffffffffffffffffffff1673ffffffffffffffffffffffffffffffffffffffff166370a08231836040518263ffffffff1660e01b8152600401611a919190612414565b602060405180830381865afa158015611aae573d6000803e3d6000fd5b505050506040513d601f19601f82011682018060405250810190611ad29190612dd5565b9050919050565b600081604051602001611aec9190613336565b604051602081830303815290604052805190602001209050919050565b611b11611d7a565b73ffffffffffffffffffffffffffffffffffffffff16611b2f61115c565b73ffffffffffffffffffffffffffffffffffffffff1614611b8e57611b52611d7a565b6040517f118cdaa7000000000000000000000000000000000000000000000000000000008152600401611b859190612414565b60405180910390fd5b565b600260005403611bcc576040517f3ee5aeb500000000000000000000000000000000000000000000000000000000815260040160405180910390fd5b6002600081905550565b6001600081905550565b6000600160009054906101000a900473ffffffffffffffffffffffffffffffffffffffff16905081600160006101000a81548173ffffffffffffffffffffffffffffffffffffffff021916908373ffffffffffffffffffffffffffffffffffffffff1602179055508173ffffffffffffffffffffffffffffffffffffffff168173ffffffffffffffffffffffffffffffffffffffff167f8be0079c531659141344cd1fd0a4f28419497f9722a3daafe3b4186f6b6457e060405160405180910390a35050565b600080600080611cb68686611d82565b925092509250611cc68282611dde565b82935050505092915050565b600080600090505b600480549050811015611d6f578273ffffffffffffffffffffffffffffffffffffffff1660048281548110611d1257611d1161314e565b5b9060005260206000200160009054906101000a900473ffffffffffffffffffffffffffffffffffffffff1673ffffffffffffffffffffffffffffffffffffffff1603611d62576001915050611d75565b8080600101915050611cda565b50600090505b919050565b600033905090565b60008060006041845103611dc75760008060006020870151925060408701519150606087015160001a9050611db988828585611f42565b955095509550505050611dd7565b60006002855160001b9250925092505b9250925092565b60006003811115611df257611df161335c565b5b826003811115611e0557611e0461335c565b5b0315611f3e5760016003811115611e1f57611e1e61335c565b5b826003811115611e3257611e3161335c565b5b03611e69576040517ff645eedf00000000000000000000000000000000000000000000000000000000815260040160405180910390fd5b60026003811115611e7d57611e7c61335c565b5b826003811115611e9057611e8f61335c565b5b03611ed5578060001c6040517ffce698f7000000000000000000000000000000000000000000000000000000008152600401611ecc9190612552565b60405180910390fd5b600380811115611ee857611ee761335c565b5b826003811115611efb57611efa61335c565b5b03611f3d57806040517fd78bce0c000000000000000000000000000000000000000000000000000000008152600401611f349190612211565b60405180910390fd5b5b5050565b60008060007f7fffffffffffffffffffffffffffffff5d576e7357a4501ddfe92f46681b20a08460001c1115611f8257600060038592509250925061202c565b600060018888888860405160008152602001604052604051611fa794939291906133a7565b6020604051602081039080840390855afa158015611fc9573d6000803e3d6000fd5b505050602060405103519050600073ffffffffffffffffffffffffffffffffffffffff168173ffffffffffffffffffffffffffffffffffffffff160361201d57600060016000801b9350935093505061202c565b8060008060001b935093509350505b9450945094915050565b8280548282559060005260206000209081019282156120c5579160200282015b828111156120c457823573ffffffffffffffffffffffffffffffffffffffff168260006101000a81548173ffffffffffffffffffffffffffffffffffffffff021916908373ffffffffffffffffffffffffffffffffffffffff16021790555091602001919060010190612056565b5b5090506120d291906120d6565b5090565b5b808211156120ef5760008160009055506001016120d7565b5090565b600080fd5b600080fd5b600073ffffffffffffffffffffffffffffffffffffffff82169050919050565b6000612128826120fd565b9050919050565b6121388161211d565b811461214357600080fd5b50565b6000813590506121558161212f565b92915050565b6000819050919050565b61216e8161215b565b811461217957600080fd5b50565b60008135905061218b81612165565b92915050565b600080600080608085870312156121ab576121aa6120f3565b5b60006121b987828801612146565b94505060206121ca8782880161217c565b93505060406121db8782880161217c565b92505060606121ec8782880161217c565b91505092959194509250565b6000819050919050565b61220b816121f8565b82525050565b60006020820190506122266000830184612202565b92915050565b600080fd5b600080fd5b600080fd5b60008083601f8401126122515761225061222c565b5b8235905067ffffffffffffffff81111561226e5761226d612231565b5b60208301915083602082028301111561228a57612289612236565b5b9250929050565b6000806000604084860312156122aa576122a96120f3565b5b600084013567ffffffffffffffff8111156122c8576122c76120f8565b5b6122d48682870161223b565b935093505060206122e78682870161217c565b9150509250925092565b60008060408385031215612308576123076120f3565b5b600061231685828601612146565b92505060206123278582860161217c565b9150509250929050565b6000819050919050565b600061235661235161234c846120fd565b612331565b6120fd565b9050919050565b60006123688261233b565b9050919050565b600061237a8261235d565b9050919050565b61238a8161236f565b82525050565b60006020820190506123a56000830184612381565b92915050565b6000602082840312156123c1576123c06120f3565b5b60006123cf84828501612146565b91505092915050565b6000602082840312156123ee576123ed6120f3565b5b60006123fc8482850161217c565b91505092915050565b61240e8161211d565b82525050565b60006020820190506124296000830184612405565b92915050565b60008115159050919050565b6124448161242f565b82525050565b600060208201905061245f600083018461243b565b92915050565b60008083601f84011261247b5761247a61222c565b5b8235905067ffffffffffffffff81111561249857612497612231565b5b6020830191508360018202830111156124b4576124b3612236565b5b9250929050565b6000806000806000608086880312156124d7576124d66120f3565b5b60006124e58882890161217c565b95505060206124f68882890161217c565b94505060406125078882890161217c565b935050606086013567ffffffffffffffff811115612528576125276120f8565b5b61253488828901612465565b92509250509295509295909350565b61254c8161215b565b82525050565b60006020820190506125676000830184612543565b92915050565b60008083601f8401126125835761258261222c565b5b8235905067ffffffffffffffff8111156125a05761259f612231565b5b6020830191508360208202830111156125bc576125bb612236565b5b9250929050565b600080600080606085870312156125dd576125dc6120f3565b5b60006125eb87828801612146565b94505060206125fc8782880161217c565b935050604085013567ffffffffffffffff81111561261d5761261c6120f8565b5b6126298782880161256d565b925092505092959194509250565b60008160601b9050919050565b600061264f82612637565b9050919050565b600061266182612644565b9050919050565b6126796126748261211d565b612656565b82525050565b6000819050919050565b61269a6126958261215b565b61267f565b82525050565b60006126ac8288612668565b6014820191506126bc8287612689565b6020820191506126cc8286612689565b6020820191506126dc8285612689565b6020820191506126ec8284612668565b6014820191508190509695505050505050565b600082825260208201905092915050565b7f4e6f206f776e6572732070726f76696465640000000000000000000000000000600082015250565b60006127466012836126ff565b915061275182612710565b602082019050919050565b6000602082019050818103600083015261277581612739565b9050919050565b7f496e76616c6964206d696e417070726f76616c73000000000000000000000000600082015250565b60006127b26014836126ff565b91506127bd8261277c565b602082019050919050565b600060208201905081810360008301526127e1816127a5565b9050919050565b600082825260208201905092915050565b6000819050919050565b61280c8161211d565b82525050565b600061281e8383612803565b60208301905092915050565b60006128396020840184612146565b905092915050565b6000602082019050919050565b600061285a83856127e8565b9350612865826127f9565b8060005b8581101561289e5761287b828461282a565b6128858882612812565b975061289083612841565b925050600181019050612869565b5085925050509392505050565b600060408201905081810360008301526128c681858761284e565b90506128d56020830184612543565b949350505050565b7f416d6f756e74206d7573742062652067726561746572207468616e2030000000600082015250565b6000612913601d836126ff565b915061291e826128dd565b602082019050919050565b6000602082019050818103600083015261294281612906565b9050919050565b7f496e73756666696369656e7420746f75726e616d656e74206665657300000000600082015250565b600061297f601c836126ff565b915061298a82612949565b602082019050919050565b600060208201905081810360008301526129ae81612972565b9050919050565b7f4e487b7100000000000000000000000000000000000000000000000000000000600052601160045260246000fd5b60006129ef8261215b565b91506129fa8361215b565b9250828203905081811115612a1257612a116129b5565b5b92915050565b6000604082019050612a2d6000830185612405565b612a3a6020830184612543565b9392505050565b612a4a8161242f565b8114612a5557600080fd5b50565b600081519050612a6781612a41565b92915050565b600060208284031215612a8357612a826120f3565b5b6000612a9184828501612a58565b91505092915050565b7f496e76616c696420726563697069656e74206164647265737300000000000000600082015250565b6000612ad06019836126ff565b9150612adb82612a9a565b602082019050919050565b60006020820190508181036000830152612aff81612ac3565b9050919050565b6000606082019050612b1b6000830186612405565b612b286020830185612405565b612b356040830184612543565b949350505050565b7f5472616e73666572206661696c65640000000000000000000000000000000000600082015250565b6000612b73600f836126ff565b9150612b7e82612b3d565b602082019050919050565b60006020820190508181036000830152612ba281612b66565b9050919050565b6000612bb48261215b565b9150612bbf8361215b565b9250828201905080821115612bd757612bd66129b5565b5b92915050565b600081905092915050565b7f454d455247454e43595f57495448445241570000000000000000000000000000600082015250565b6000612c1e601283612bdd565b9150612c2982612be8565b601282019050919050565b6000612c3f82612c11565b9150612c4b8286612668565b601482019150612c5b8285612689565b602082019150612c6b8284612668565b601482019150819050949350505050565b7f496e76616c6964207369676e6572206164647265737300000000000000000000600082015250565b6000612cb26016836126ff565b9150612cbd82612c7c565b602082019050919050565b60006020820190508181036000830152612ce181612ca5565b9050919050565b7f5369676e61747572652065787069726564000000000000000000000000000000600082015250565b6000612d1e6011836126ff565b9150612d2982612ce8565b602082019050919050565b60006020820190508181036000830152612d4d81612d11565b9050919050565b7f4e6f6e636520616c726561647920757365640000000000000000000000000000600082015250565b6000612d8a6012836126ff565b9150612d9582612d54565b602082019050919050565b60006020820190508181036000830152612db981612d7d565b9050919050565b600081519050612dcf81612165565b92915050565b600060208284031215612deb57612dea6120f3565b5b6000612df984828501612dc0565b91505092915050565b7f496e73756666696369656e7420636f6e74726163742062616c616e6365000000600082015250565b6000612e38601d836126ff565b9150612e4382612e02565b602082019050919050565b60006020820190508181036000830152612e6781612e2b565b9050919050565b7f54727573746564207369676e6572206e6f742073657400000000000000000000600082015250565b6000612ea46016836126ff565b9150612eaf82612e6e565b602082019050919050565b60006020820190508181036000830152612ed381612e97565b9050919050565b7f496e76616c6964207369676e6174757265000000000000000000000000000000600082015250565b6000612f106011836126ff565b9150612f1b82612eda565b602082019050919050565b60006020820190508181036000830152612f3f81612f03565b9050919050565b6000604082019050612f5b6000830185612543565b612f686020830184612543565b9392505050565b7f496e76616c69642027746f272061646472657373000000000000000000000000600082015250565b6000612fa56014836126ff565b9150612fb082612f6f565b602082019050919050565b60006020820190508181036000830152612fd481612f98565b9050919050565b7f416d6f756e74206d757374206265203e20300000000000000000000000000000600082015250565b60006130116012836126ff565b915061301c82612fdb565b602082019050919050565b6000602082019050818103600083015261304081613004565b9050919050565b7f496e73756666696369656e742062616c616e6365000000000000000000000000600082015250565b600061307d6014836126ff565b915061308882613047565b602082019050919050565b600060208201905081810360008301526130ac81613070565b9050919050565b7f4d756c74692d736967206e6f7420736574000000000000000000000000000000600082015250565b60006130e96011836126ff565b91506130f4826130b3565b602082019050919050565b60006020820190508181036000830152613118816130dc565b9050919050565b7f4e487b7100000000000000000000000000000000000000000000000000000000600052604160045260246000fd5b7f4e487b7100000000000000000000000000000000000000000000000000000000600052603260045260246000fd5b600080fd5b600080fd5b600080fd5b600080833560016020038436030381126131a9576131a861317d565b5b80840192508235915067ffffffffffffffff8211156131cb576131ca613182565b5b6020830192506001820236038313156131e7576131e6613187565b5b509250929050565b60006131fa8261215b565b91507fffffffffffffffffffffffffffffffffffffffffffffffffffffffffffffffff820361322c5761322b6129b5565b5b600182019050919050565b7f4e6f7420656e6f7567682076616c6964206f776e6572207369676e617475726560008201527f7300000000000000000000000000000000000000000000000000000000000000602082015250565b60006132936021836126ff565b915061329e82613237565b604082019050919050565b600060208201905081810360008301526132c281613286565b9050919050565b7f19457468657265756d205369676e6564204d6573736167653a0a333200000000600082015250565b60006132ff601c83612bdd565b915061330a826132c9565b601c82019050919050565b6000819050919050565b61333061332b826121f8565b613315565b82525050565b6000613341826132f2565b915061334d828461331f565b60208201915081905092915050565b7f4e487b7100000000000000000000000000000000000000000000000000000000600052602160045260246000fd5b600060ff82169050919050565b6133a18161338b565b82525050565b60006080820190506133bc6000830187612202565b6133c96020830186613398565b6133d66040830185612202565b6133e36060830184612202565b9594505050505056fea2646970667358221220292b4486670f884455c935cfbb54e2577658a381a3de350862447a1dbea70ad464736f6c634300081c0033",
  "linkReferences": {},
  "deployedLinkReferences": {}
}