{
  "_format": "hh-sol-artifact-1",
  "contractName": "ClubhouseMain",
  "sourceName": "contracts/ClubhouseMain.sol",
  "abi": [
    {
      "inputs": [
        {
          "internalType": "address",
          "name": "_tokenAddress",
          "type": "address"
        }
      ],
      "stateMutability": "nonpayable",
      "type": "constructor"
    },
    {
      "inputs": [],
      "name": "ECDSAInvalidSignature",
      "type": "error"
    },
    {
      "inputs": [
        {
          "internalType": "uint256",
          "name": "length",
          "type": "uint256"
        }
      ],
      "name": "ECDSAInvalidSignatureLength",
      "type": "error"
    },
    {
      "inputs": [
        {
          "internalType": "bytes32",
          "name": "s",
          "type": "bytes32"
        }
      ],
      "name": "ECDSAInvalidSignatureS",
      "type": "error"
    },
    {
      "inputs": [],
      "name": "EnforcedPause",
      "type": "error"
    },
    {
      "inputs": [],
      "name": "ExpectedPause",
      "type": "error"
    },
    {
      "inputs": [
        {
          "internalType": "address",
          "name": "owner",
          "type": "address"
        }
      ],
      "name": "OwnableInvalidOwner",
      "type": "error"
    },
    {
      "inputs": [
        {
          "internalType": "address",
          "name": "account",
          "type": "address"
        }
      ],
      "name": "OwnableUnauthorizedAccount",
      "type": "error"
    },
    {
      "inputs": [],
      "name": "ReentrancyGuardReentrantCall",
      "type": "error"
    },
    {
      "anonymous": false,
      "inputs": [
        {
          "indexed": true,
          "internalType": "address",
          "name": "to",
          "type": "address"
        },
        {
          "indexed": false,
          "internalType": "uint256",
          "name": "amount",
          "type": "uint256"
        }
      ],
      "name": "EmergencyWithdrawal",
      "type": "event"
    },
    {
      "anonymous": false,
      "inputs": [
        {
          "indexed": false,
          "internalType": "address[]",
          "name": "newOwners",
          "type": "address[]"
        },
        {
          "indexed": false,
          "internalType": "uint256",
          "name": "minApprovals",
          "type": "uint256"
        }
      ],
      "name": "MultiSigOwnersUpdated",
      "type": "event"
    },
    {
      "anonymous": false,
      "inputs": [
        {
          "indexed": true,
          "internalType": "address",
          "name": "previousOwner",
          "type": "address"
        },
        {
          "indexed": true,
          "internalType": "address",
          "name": "newOwner",
          "type": "address"
        }
      ],
      "name": "OwnershipTransferred",
      "type": "event"
    },
    {
      "anonymous": false,
      "inputs": [
        {
          "indexed": false,
          "internalType": "address",
          "name": "account",
          "type": "address"
        }
      ],
      "name": "Paused",
      "type": "event"
    },
    {
      "anonymous": false,
      "inputs": [
        {
          "indexed": true,
          "internalType": "address",
          "name": "user",
          "type": "address"
        },
        {
          "indexed": false,
          "internalType": "uint256",
          "name": "amount",
          "type": "uint256"
        }
      ],
      "name": "TokensDeposited",
      "type": "event"
    },
    {
      "anonymous": false,
      "inputs": [
        {
          "indexed": false,
          "internalType": "uint256",
          "name": "amount",
          "type": "uint256"
        }
      ],
      "name": "TournamentFeesCollected",
      "type": "event"
    },
    {
      "anonymous": false,
      "inputs": [
        {
          "indexed": true,
          "internalType": "address",
          "name": "to",
          "type": "address"
        },
        {
          "indexed": false,
          "internalType": "uint256",
          "name": "amount",
          "type": "uint256"
        }
      ],
      "name": "TournamentFeesWithdrawn",
      "type": "event"
    },
    {
      "anonymous": false,
      "inputs": [
        {
          "indexed": true,
          "internalType": "address",
          "name": "oldSigner",
          "type": "address"
        },
        {
          "indexed": true,
          "internalType": "address",
          "name": "newSigner",
          "type": "address"
        }
      ],
      "name": "TrustedSignerUpdated",
      "type": "event"
    },
    {
      "anonymous": false,
      "inputs": [
        {
          "indexed": false,
          "internalType": "address",
          "name": "account",
          "type": "address"
        }
      ],
      "name": "Unpaused",
      "type": "event"
    },
    {
      "anonymous": false,
      "inputs": [
        {
          "indexed": true,
          "internalType": "address",
          "name": "user",
          "type": "address"
        },
        {
          "indexed": false,
          "internalType": "uint256",
          "name": "amount",
          "type": "uint256"
        },
        {
          "indexed": false,
          "internalType": "uint256",
          "name": "nonce",
          "type": "uint256"
        }
      ],
      "name": "WithdrawalWithSignature",
      "type": "event"
    },
    {
      "inputs": [
        {
          "internalType": "uint256",
          "name": "amount",
          "type": "uint256"
        }
      ],
      "name": "collectTournamentFee",
      "outputs": [],
      "stateMutability": "nonpayable",
      "type": "function"
    },
    {
      "inputs": [
        {
          "internalType": "uint256",
          "name": "amount",
          "type": "uint256"
        }
      ],
      "name": "deposit",
      "outputs": [],
      "stateMutability": "nonpayable",
      "type": "function"
    },
    {
      "inputs": [
        {
          "internalType": "address",
          "name": "user",
          "type": "address"
        },
        {
          "internalType": "uint256",
          "name": "amount",
          "type": "uint256"
        },
        {
          "internalType": "uint256",
          "name": "deadline",
          "type": "uint256"
        },
        {
          "internalType": "uint8",
          "name": "v",
          "type": "uint8"
        },
        {
          "internalType": "bytes32",
          "name": "r",
          "type": "bytes32"
        },
        {
          "internalType": "bytes32",
          "name": "s",
          "type": "bytes32"
        }
      ],
      "name": "depositWithMetaTx",
      "outputs": [],
      "stateMutability": "nonpayable",
      "type": "function"
    },
    {
      "inputs": [
        {
          "internalType": "address",
          "name": "to",
          "type": "address"
        },
        {
          "internalType": "uint256",
          "name": "amount",
          "type": "uint256"
        },
        {
          "internalType": "bytes[]",
          "name": "signatures",
          "type": "bytes[]"
        }
      ],
      "name": "emergencyWithdraw",
      "outputs": [],
      "stateMutability": "nonpayable",
      "type": "function"
    },
    {
      "inputs": [
        {
          "internalType": "bytes32",
          "name": "_messageHash",
          "type": "bytes32"
        }
      ],
      "name": "getEthSignedMessageHash",
      "outputs": [
        {
          "internalType": "bytes32",
          "name": "",
          "type": "bytes32"
        }
      ],
      "stateMutability": "pure",
      "type": "function"
    },
    {
      "inputs": [
        {
          "internalType": "address",
          "name": "_caller",
          "type": "address"
        },
        {
          "internalType": "uint256",
          "name": "_amount",
          "type": "uint256"
        },
        {
          "internalType": "string",
          "name": "_message",
          "type": "string"
        },
        {
          "internalType": "uint256",
          "name": "_nonce",
          "type": "uint256"
        }
      ],
      "name": "getMessageHash",
      "outputs": [
        {
          "internalType": "bytes32",
          "name": "",
          "type": "bytes32"
        }
      ],
      "stateMutability": "pure",
      "type": "function"
    },
    {
      "inputs": [
        {
          "internalType": "address",
          "name": "_to",
          "type": "address"
        },
        {
          "internalType": "uint256",
          "name": "_amount",
          "type": "uint256"
        },
        {
          "internalType": "address",
          "name": "_thisContract",
          "type": "address"
        }
      ],
      "name": "getMessageHashForOwnerWithdrawal",
      "outputs": [
        {
          "internalType": "bytes32",
          "name": "",
          "type": "bytes32"
        }
      ],
      "stateMutability": "pure",
      "type": "function"
    },
    {
      "inputs": [
        {
          "internalType": "address",
          "name": "",
          "type": "address"
        }
      ],
      "name": "isMultiSigOwner",
      "outputs": [
        {
          "internalType": "bool",
          "name": "",
          "type": "bool"
        }
      ],
      "stateMutability": "view",
      "type": "function"
    },
    {
      "inputs": [],
      "name": "minApprovals",
      "outputs": [
        {
          "internalType": "uint256",
          "name": "",
          "type": "uint256"
        }
      ],
      "stateMutability": "view",
      "type": "function"
    },
    {
      "inputs": [
        {
          "internalType": "uint256",
          "name": "",
          "type": "uint256"
        }
      ],
      "name": "multiSigOwners",
      "outputs": [
        {
          "internalType": "address",
          "name": "",
          "type": "address"
        }
      ],
      "stateMutability": "view",
      "type": "function"
    },
    {
      "inputs": [],
      "name": "owner",
      "outputs": [
        {
          "internalType": "address",
          "name": "",
          "type": "address"
        }
      ],
      "stateMutability": "view",
      "type": "function"
    },
    {
      "inputs": [],
      "name": "pause",
      "outputs": [],
      "stateMutability": "nonpayable",
      "type": "function"
    },
    {
      "inputs": [],
      "name": "paused",
      "outputs": [
        {
          "internalType": "bool",
          "name": "",
          "type": "bool"
        }
      ],
      "stateMutability": "view",
      "type": "function"
    },
    {
      "inputs": [],
      "name": "renounceOwnership",
      "outputs": [],
      "stateMutability": "nonpayable",
      "type": "function"
    },
    {
      "inputs": [
        {
          "internalType": "address[]",
          "name": "owners",
          "type": "address[]"
        },
        {
          "internalType": "uint256",
          "name": "_minApprovals",
          "type": "uint256"
        }
      ],
      "name": "setMultiSigOwners",
      "outputs": [],
      "stateMutability": "nonpayable",
      "type": "function"
    },
    {
      "inputs": [
        {
          "internalType": "address",
          "name": "_trustedSigner",
          "type": "address"
        }
      ],
      "name": "setTrustedSigner",
      "outputs": [],
      "stateMutability": "nonpayable",
      "type": "function"
    },
    {
      "inputs": [],
      "name": "tmkocPermitToken",
      "outputs": [
        {
          "internalType": "contract IERC20Permit",
          "name": "",
          "type": "address"
        }
      ],
      "stateMutability": "view",
      "type": "function"
    },
    {
      "inputs": [],
      "name": "tmkocToken",
      "outputs": [
        {
          "internalType": "contract IERC20",
          "name": "",
          "type": "address"
        }
      ],
      "stateMutability": "view",
      "type": "function"
    },
    {
      "inputs": [],
      "name": "totalTournamentFees",
      "outputs": [
        {
          "internalType": "uint256",
          "name": "",
          "type": "uint256"
        }
      ],
      "stateMutability": "view",
      "type": "function"
    },
    {
      "inputs": [
        {
          "internalType": "address",
          "name": "newOwner",
          "type": "address"
        }
      ],
      "name": "transferOwnership",
      "outputs": [],
      "stateMutability": "nonpayable",
      "type": "function"
    },
    {
      "inputs": [],
      "name": "trustedSigner",
      "outputs": [
        {
          "internalType": "address",
          "name": "",
          "type": "address"
        }
      ],
      "stateMutability": "view",
      "type": "function"
    },
    {
      "inputs": [],
      "name": "unpause",
      "outputs": [],
      "stateMutability": "nonpayable",
      "type": "function"
    },
    {
      "inputs": [
        {
          "internalType": "address",
          "name": "",
          "type": "address"
        },
        {
          "internalType": "uint256",
          "name": "",
          "type": "uint256"
        }
      ],
      "name": "usedNonces",
      "outputs": [
        {
          "internalType": "bool",
          "name": "",
          "type": "bool"
        }
      ],
      "stateMutability": "view",
      "type": "function"
    },
    {
      "inputs": [
        {
          "internalType": "address",
          "name": "recipient",
          "type": "address"
        },
        {
          "internalType": "uint256",
          "name": "amount",
          "type": "uint256"
        }
      ],
      "name": "withdrawToUser",
      "outputs": [],
      "stateMutability": "nonpayable",
      "type": "function"
    },
    {
      "inputs": [
        {
          "internalType": "address",
          "name": "to",
          "type": "address"
        },
        {
          "internalType": "uint256",
          "name": "amount",
          "type": "uint256"
        },
        {
          "internalType": "bytes[]",
          "name": "signatures",
          "type": "bytes[]"
        }
      ],
      "name": "withdrawTournamentFee",
      "outputs": [],
      "stateMutability": "nonpayable",
      "type": "function"
    },
    {
      "inputs": [
        {
          "internalType": "address",
          "name": "recipient",
          "type": "address"
        },
        {
          "internalType": "uint256",
          "name": "amount",
          "type": "uint256"
        },
        {
          "internalType": "uint256",
          "name": "nonce",
          "type": "uint256"
        },
        {
          "internalType": "string",
          "name": "message",
          "type": "string"
        },
        {
          "internalType": "uint256",
          "name": "expiry",
          "type": "uint256"
        },
        {
          "internalType": "bytes",
          "name": "signature",
          "type": "bytes"
        }
      ],
      "name": "withdrawWithSignature",
      "outputs": [],
      "stateMutability": "nonpayable",
      "type": "function"
    }
  ],
  "bytecode": "0x608060405234801561001057600080fd5b506040516144e33803806144e3833981810160405281019061003291906102f8565b336001600081905550600073ffffffffffffffffffffffffffffffffffffffff168173ffffffffffffffffffffffffffffffffffffffff16036100ad5760006040517f1e4fbdf70000000000000000000000000000000000000000000000000000000081526004016100a49190610334565b60405180910390fd5b6100bc816101cf60201b60201c565b506000600160146101000a81548160ff021916908315150217905550600073ffffffffffffffffffffffffffffffffffffffff168173ffffffffffffffffffffffffffffffffffffffff1603610147576040517f08c379a000000000000000000000000000000000000000000000000000000000815260040161013e906103ac565b60405180910390fd5b80600260006101000a81548173ffffffffffffffffffffffffffffffffffffffff021916908373ffffffffffffffffffffffffffffffffffffffff16021790555080600360006101000a81548173ffffffffffffffffffffffffffffffffffffffff021916908373ffffffffffffffffffffffffffffffffffffffff160217905550506103cc565b6000600160009054906101000a900473ffffffffffffffffffffffffffffffffffffffff16905081600160006101000a81548173ffffffffffffffffffffffffffffffffffffffff021916908373ffffffffffffffffffffffffffffffffffffffff1602179055508173ffffffffffffffffffffffffffffffffffffffff168173ffffffffffffffffffffffffffffffffffffffff167f8be0079c531659141344cd1fd0a4f28419497f9722a3daafe3b4186f6b6457e060405160405180910390a35050565b600080fd5b600073ffffffffffffffffffffffffffffffffffffffff82169050919050565b60006102c58261029a565b9050919050565b6102d5816102ba565b81146102e057600080fd5b50565b6000815190506102f2816102cc565b92915050565b60006020828403121561030e5761030d610295565b5b600061031c848285016102e3565b91505092915050565b61032e816102ba565b82525050565b60006020820190506103496000830184610325565b92915050565b600082825260208201905092915050565b7f496e76616c696420746f6b656e20616464726573730000000000000000000000600082015250565b600061039660158361034f565b91506103a182610360565b602082019050919050565b600060208201905081810360008301526103c581610389565b9050919050565b614108806103db6000396000f3fe608060405234801561001057600080fd5b506004361061018e5760003560e01c80638da5cb5b116100de578063b6b55f2511610097578063d830970611610071578063d830970614610433578063f2fde38b14610451578063f74d54801461046d578063fa5408011461048b5761018e565b8063b6b55f25146103cb578063bf686144146103e7578063c3169846146104175761018e565b80638da5cb5b1461030b5780638f8a6eee146103295780639e7cc49b14610345578063a288168a14610363578063a35f8a401461037f578063b4485ffb146103af5761018e565b80635c975abb1161014b5780636a8a6894116101255780636a8a6894146102ab5780636d6255c7146102db578063715018a6146102f75780638456cb59146103015761018e565b80635c975abb1461022d5780636603a7b21461024b57806368ea8f1f1461027b5761018e565b806321d94df9146101935780632b371295146101af5780633ba6c040146101cb5780633f4ba83a146101e95780634e105ec7146101f357806356a1c70114610211575b600080fd5b6101ad60048036038101906101a891906129c7565b6104bb565b005b6101c960048036038101906101c49190612a85565b61074a565b005b6101d3610a34565b6040516101e09190612b24565b60405180910390f35b6101f1610a5a565b005b6101fb610a6c565b6040516102089190612b60565b60405180910390f35b61022b60048036038101906102269190612b7b565b610a92565b005b610235610bc9565b6040516102429190612bc3565b60405180910390f35b61026560048036038101906102609190612bde565b610be0565b6040516102729190612c1a565b60405180910390f35b61029560048036038101906102909190612b7b565b610c1f565b6040516102a29190612bc3565b60405180910390f35b6102c560048036038101906102c09190612a85565b610c3f565b6040516102d29190612bc3565b60405180910390f35b6102f560048036038101906102f09190612bde565b610c6e565b005b6102ff610d0c565b005b610309610d20565b005b610313610d32565b6040516103209190612c1a565b60405180910390f35b610343600480360381019061033e9190612c8b565b610d5c565b005b61034d611245565b60405161035a9190612d0e565b60405180910390f35b61037d60048036038101906103789190612c8b565b61124b565b005b61039960048036038101906103949190612e6a565b6117b4565b6040516103a69190612f06565b60405180910390f35b6103c960048036038101906103c49190612f86565b6117ed565b005b6103e560048036038101906103e09190612bde565b611a6b565b005b61040160048036038101906103fc9190613013565b611c6d565b60405161040e9190612f06565b60405180910390f35b610431600480360381019061042c91906130bc565b611ca3565b005b61043b6121ae565b6040516104489190612d0e565b60405180910390f35b61046b60048036038101906104669190612b7b565b6121b4565b005b61047561223a565b6040516104829190612c1a565b60405180910390f35b6104a560048036038101906104a09190613187565b612260565b6040516104b29190612f06565b60405180910390f35b6104c3612290565b60008383905011610509576040517f08c379a000000000000000000000000000000000000000000000000000000000815260040161050090613211565b60405180910390fd5b600a838390501115610550576040517f08c379a00000000000000000000000000000000000000000000000000000000081526004016105479061327d565b60405180910390fd5b6000811180156105635750828290508111155b6105a2576040517f08c379a0000000000000000000000000000000000000000000000000000000008152600401610599906132e9565b60405180910390fd5b60005b60088054905081101561065557600060076000600884815481106105cc576105cb613309565b5b9060005260206000200160009054906101000a900473ffffffffffffffffffffffffffffffffffffffff1673ffffffffffffffffffffffffffffffffffffffff1673ffffffffffffffffffffffffffffffffffffffff16815260200190815260200160002060006101000a81548160ff02191690831515021790555080806001019150506105a5565b5060005b838390508110156106f05760016007600086868581811061067d5761067c613309565b5b90506020020160208101906106929190612b7b565b73ffffffffffffffffffffffffffffffffffffffff1673ffffffffffffffffffffffffffffffffffffffff16815260200190815260200160002060006101000a81548160ff0219169083151502179055508080600101915050610659565b5082826008919061070292919061285b565b50806009819055507f676b48f8ece603d24ff4190a55ea501f01000e70bcfc0a9c8546ad07dcdd2fd483838360405161073d939291906133fb565b60405180910390a1505050565b610752612290565b61075a612317565b61076261235d565b600073ffffffffffffffffffffffffffffffffffffffff168273ffffffffffffffffffffffffffffffffffffffff16036107d1576040517f08c379a00000000000000000000000000000000000000000000000000000000081526004016107c890613479565b60405180910390fd5b60008111610814576040517f08c379a000000000000000000000000000000000000000000000000000000000815260040161080b906134e5565b60405180910390fd5b80600260009054906101000a900473ffffffffffffffffffffffffffffffffffffffff1673ffffffffffffffffffffffffffffffffffffffff166370a08231306040518263ffffffff1660e01b81526004016108709190612c1a565b602060405180830381865afa15801561088d573d6000803e3d6000fd5b505050506040513d601f19601f820116820180604052508101906108b1919061351a565b10156108f2576040517f08c379a00000000000000000000000000000000000000000000000000000000081526004016108e990613593565b60405180910390fd5b6000600260009054906101000a900473ffffffffffffffffffffffffffffffffffffffff1673ffffffffffffffffffffffffffffffffffffffff1663a9059cbb84846040518363ffffffff1660e01b81526004016109519291906135b3565b6020604051808303816000875af1158015610970573d6000803e3d6000fd5b505050506040513d601f19601f820116820180604052508101906109949190613608565b9050806109d6576040517f08c379a00000000000000000000000000000000000000000000000000000000081526004016109cd90613681565b60405180910390fd5b8273ffffffffffffffffffffffffffffffffffffffff167f2a8fba2096b8ec3e3c7271e0ee9774e16ae4308fdcce7399cf6d3390206f924c836000604051610a1f9291906136dc565b60405180910390a250610a3061239e565b5050565b600360009054906101000a900473ffffffffffffffffffffffffffffffffffffffff1681565b610a62612290565b610a6a6123a8565b565b600260009054906101000a900473ffffffffffffffffffffffffffffffffffffffff1681565b610a9a612290565b600073ffffffffffffffffffffffffffffffffffffffff168173ffffffffffffffffffffffffffffffffffffffff1603610b09576040517f08c379a0000000000000000000000000000000000000000000000000000000008152600401610b0090613751565b60405180910390fd5b8073ffffffffffffffffffffffffffffffffffffffff16600460009054906101000a900473ffffffffffffffffffffffffffffffffffffffff1673ffffffffffffffffffffffffffffffffffffffff167f4a297cf5d32586f80d2b0708a39d2da1f46e6ae7722171e1c51dfd685b5b8aa860405160405180910390a380600460006101000a81548173ffffffffffffffffffffffffffffffffffffffff021916908373ffffffffffffffffffffffffffffffffffffffff16021790555050565b6000600160149054906101000a900460ff16905090565b60088181548110610bf057600080fd5b906000526020600020016000915054906101000a900473ffffffffffffffffffffffffffffffffffffffff1681565b60076020528060005260406000206000915054906101000a900460ff1681565b60066020528160005260406000206020528060005260406000206000915091509054906101000a900460ff1681565b610c76612290565b60008111610cb9576040517f08c379a0000000000000000000000000000000000000000000000000000000008152600401610cb0906137bd565b60405180910390fd5b8060056000828254610ccb919061380c565b925050819055507f104a61272b62ef866242b3a3f3ea8d18de122e5f020f54b6c10f9bba497428bd81604051610d019190612d0e565b60405180910390a150565b610d14612290565b610d1e600061240b565b565b610d28612290565b610d306124d1565b565b6000600160009054906101000a900473ffffffffffffffffffffffffffffffffffffffff16905090565b610d64612290565b610d6c612317565b610d7461235d565b600073ffffffffffffffffffffffffffffffffffffffff168473ffffffffffffffffffffffffffffffffffffffff1603610de3576040517f08c379a0000000000000000000000000000000000000000000000000000000008152600401610dda90613479565b60405180910390fd5b60008311610e26576040517f08c379a0000000000000000000000000000000000000000000000000000000008152600401610e1d906134e5565b60405180910390fd5b826005541015610e6b576040517f08c379a0000000000000000000000000000000000000000000000000000000008152600401610e629061388c565b60405180910390fd5b600954828290501015610eb3576040517f08c379a0000000000000000000000000000000000000000000000000000000008152600401610eaa9061391e565b60405180910390fd5b6000610ec0858530611c6d565b90506000610ecd82612260565b905060008060088054905067ffffffffffffffff811115610ef157610ef0612d3f565b5b604051908082528060200260200182016040528015610f1f5781602001602082028036833780820191505090505b50905060005b868690508110156110a1576000610fa385898985818110610f4957610f48613309565b5b9050602002810190610f5b919061394d565b8080601f016020809104026020016040519081016040528093929190818152602001838380828437600081840152601f19601f82011690508083019250505050505050612533565b905060005b6008805490508110156110925760088181548110610fc957610fc8613309565b5b9060005260206000200160009054906101000a900473ffffffffffffffffffffffffffffffffffffffff1673ffffffffffffffffffffffffffffffffffffffff168273ffffffffffffffffffffffffffffffffffffffff16148015611046575083818151811061103c5761103b613309565b5b6020026020010151155b156110855760018482815181106110605761105f613309565b5b602002602001019015159081151581525050848061107d906139b0565b955050611092565b8080600101915050610fa8565b50508080600101915050610f25565b506009548210156110e7576040517f08c379a00000000000000000000000000000000000000000000000000000000081526004016110de90613a44565b60405180910390fd5b86600560008282546110f99190613a64565b925050819055506000600260009054906101000a900473ffffffffffffffffffffffffffffffffffffffff1673ffffffffffffffffffffffffffffffffffffffff1663a9059cbb8a8a6040518363ffffffff1660e01b815260040161115f9291906135b3565b6020604051808303816000875af115801561117e573d6000803e3d6000fd5b505050506040513d601f19601f820116820180604052508101906111a29190613608565b9050806111e4576040517f08c379a00000000000000000000000000000000000000000000000000000000081526004016111db90613681565b60405180910390fd5b8873ffffffffffffffffffffffffffffffffffffffff167ff327d1b2d15a0f7936567e44a9a981c20e6776135a84b25e0d826a3f6e0e57798960405161122a9190612d0e565b60405180910390a2505050505061123f61239e565b50505050565b60055481565b611253612290565b61125b612317565b61126361235d565b600073ffffffffffffffffffffffffffffffffffffffff168473ffffffffffffffffffffffffffffffffffffffff16036112d2576040517f08c379a00000000000000000000000000000000000000000000000000000000081526004016112c990613479565b60405180910390fd5b60008311611315576040517f08c379a000000000000000000000000000000000000000000000000000000000815260040161130c906134e5565b60405180910390fd5b82600260009054906101000a900473ffffffffffffffffffffffffffffffffffffffff1673ffffffffffffffffffffffffffffffffffffffff166370a08231306040518263ffffffff1660e01b81526004016113719190612c1a565b602060405180830381865afa15801561138e573d6000803e3d6000fd5b505050506040513d601f19601f820116820180604052508101906113b2919061351a565b10156113f3576040517f08c379a00000000000000000000000000000000000000000000000000000000081526004016113ea90613ae4565b60405180910390fd5b60095482829050101561143b576040517f08c379a00000000000000000000000000000000000000000000000000000000081526004016114329061391e565b60405180910390fd5b6000611448858530611c6d565b9050600061145582612260565b905060008060088054905067ffffffffffffffff81111561147957611478612d3f565b5b6040519080825280602002602001820160405280156114a75781602001602082028036833780820191505090505b50905060005b8686905081101561162957600061152b858989858181106114d1576114d0613309565b5b90506020028101906114e3919061394d565b8080601f016020809104026020016040519081016040528093929190818152602001838380828437600081840152601f19601f82011690508083019250505050505050612533565b905060005b60088054905081101561161a578173ffffffffffffffffffffffffffffffffffffffff166008828154811061156857611567613309565b5b9060005260206000200160009054906101000a900473ffffffffffffffffffffffffffffffffffffffff1673ffffffffffffffffffffffffffffffffffffffff161480156115ce57508381815181106115c4576115c3613309565b5b6020026020010151155b1561160d5760018482815181106115e8576115e7613309565b5b6020026020010190151590811515815250508480611605906139b0565b95505061161a565b8080600101915050611530565b505080806001019150506114ad565b5060095482101561166f576040517f08c379a000000000000000000000000000000000000000000000000000000000815260040161166690613a44565b60405180910390fd5b6000600260009054906101000a900473ffffffffffffffffffffffffffffffffffffffff1673ffffffffffffffffffffffffffffffffffffffff1663a9059cbb8a8a6040518363ffffffff1660e01b81526004016116ce9291906135b3565b6020604051808303816000875af11580156116ed573d6000803e3d6000fd5b505050506040513d601f19601f820116820180604052508101906117119190613608565b905080611753576040517f08c379a000000000000000000000000000000000000000000000000000000000815260040161174a90613681565b60405180910390fd5b8873ffffffffffffffffffffffffffffffffffffffff167f23d6711a1d031134a36921253c75aa59e967d38e369ac625992824315e204f20896040516117999190612d0e565b60405180910390a250505050506117ae61239e565b50505050565b6000848484846040516020016117cd9493929190613bde565b604051602081830303815290604052805190602001209050949350505050565b6117f5612317565b6117fd61235d565b600460009054906101000a900473ffffffffffffffffffffffffffffffffffffffff1673ffffffffffffffffffffffffffffffffffffffff163373ffffffffffffffffffffffffffffffffffffffff161461188d576040517f08c379a000000000000000000000000000000000000000000000000000000000815260040161188490613c74565b60405180910390fd5b600360009054906101000a900473ffffffffffffffffffffffffffffffffffffffff1673ffffffffffffffffffffffffffffffffffffffff1663d505accf873088888888886040518863ffffffff1660e01b81526004016118f49796959493929190613ca3565b600060405180830381600087803b15801561190e57600080fd5b505af1158015611922573d6000803e3d6000fd5b505050506000600260009054906101000a900473ffffffffffffffffffffffffffffffffffffffff1673ffffffffffffffffffffffffffffffffffffffff166323b872dd8830896040518463ffffffff1660e01b815260040161198793929190613d12565b6020604051808303816000875af11580156119a6573d6000803e3d6000fd5b505050506040513d601f19601f820116820180604052508101906119ca9190613608565b905080611a0c576040517f08c379a0000000000000000000000000000000000000000000000000000000008152600401611a0390613681565b60405180910390fd5b8673ffffffffffffffffffffffffffffffffffffffff167f59062170a285eb80e8c6b8ced60428442a51910635005233fc4ce084a475845e87604051611a529190612d0e565b60405180910390a250611a6361239e565b505050505050565b611a73612317565b611a7b61235d565b600073ffffffffffffffffffffffffffffffffffffffff163373ffffffffffffffffffffffffffffffffffffffff1603611aea576040517f08c379a0000000000000000000000000000000000000000000000000000000008152600401611ae190613d95565b60405180910390fd5b60008111611b2d576040517f08c379a0000000000000000000000000000000000000000000000000000000008152600401611b24906137bd565b60405180910390fd5b6000600260009054906101000a900473ffffffffffffffffffffffffffffffffffffffff1673ffffffffffffffffffffffffffffffffffffffff166323b872dd3330856040518463ffffffff1660e01b8152600401611b8e93929190613d12565b6020604051808303816000875af1158015611bad573d6000803e3d6000fd5b505050506040513d601f19601f82011682018060405250810190611bd19190613608565b905080611c13576040517f08c379a0000000000000000000000000000000000000000000000000000000008152600401611c0a90613681565b60405180910390fd5b3373ffffffffffffffffffffffffffffffffffffffff167f59062170a285eb80e8c6b8ced60428442a51910635005233fc4ce084a475845e83604051611c599190612d0e565b60405180910390a250611c6a61239e565b50565b6000838383604051602001611c8493929190613db5565b6040516020818303038152906040528051906020012090509392505050565b611cab612317565b611cb361235d565b82421115611cf6576040517f08c379a0000000000000000000000000000000000000000000000000000000008152600401611ced90613e3e565b60405180910390fd5b600660008873ffffffffffffffffffffffffffffffffffffffff1673ffffffffffffffffffffffffffffffffffffffff168152602001908152602001600020600086815260200190815260200160002060009054906101000a900460ff1615611d94576040517f08c379a0000000000000000000000000000000000000000000000000000000008152600401611d8b90613eaa565b60405180910390fd5b85600260009054906101000a900473ffffffffffffffffffffffffffffffffffffffff1673ffffffffffffffffffffffffffffffffffffffff166370a08231306040518263ffffffff1660e01b8152600401611df09190612c1a565b602060405180830381865afa158015611e0d573d6000803e3d6000fd5b505050506040513d601f19601f82011682018060405250810190611e31919061351a565b1015611e72576040517f08c379a0000000000000000000000000000000000000000000000000000000008152600401611e6990613593565b60405180910390fd5b600073ffffffffffffffffffffffffffffffffffffffff16600460009054906101000a900473ffffffffffffffffffffffffffffffffffffffff1673ffffffffffffffffffffffffffffffffffffffff1603611f03576040517f08c379a0000000000000000000000000000000000000000000000000000000008152600401611efa90613f16565b60405180910390fd5b6001600660008973ffffffffffffffffffffffffffffffffffffffff1673ffffffffffffffffffffffffffffffffffffffff168152602001908152602001600020600087815260200190815260200160002060006101000a81548160ff0219169083151502179055506000611f7a888887896117b4565b90506000611f8782612260565b90506000611fd98286868080601f016020809104026020016040519081016040528093929190818152602001838380828437600081840152601f19601f82011690508083019250505050505050612533565b9050600460009054906101000a900473ffffffffffffffffffffffffffffffffffffffff1673ffffffffffffffffffffffffffffffffffffffff168173ffffffffffffffffffffffffffffffffffffffff161461206b576040517f08c379a000000000000000000000000000000000000000000000000000000000815260040161206290613f82565b60405180910390fd5b600260009054906101000a900473ffffffffffffffffffffffffffffffffffffffff1673ffffffffffffffffffffffffffffffffffffffff1663a9059cbb8b8b6040518363ffffffff1660e01b81526004016120c89291906135b3565b6020604051808303816000875af11580156120e7573d6000803e3d6000fd5b505050506040513d601f19601f8201168201806040525081019061210b9190613608565b61214a576040517f08c379a000000000000000000000000000000000000000000000000000000000815260040161214190613681565b60405180910390fd5b8973ffffffffffffffffffffffffffffffffffffffff167f2a8fba2096b8ec3e3c7271e0ee9774e16ae4308fdcce7399cf6d3390206f924c8a8a604051612192929190613fa2565b60405180910390a25050506121a561239e565b50505050505050565b60095481565b6121bc612290565b600073ffffffffffffffffffffffffffffffffffffffff168173ffffffffffffffffffffffffffffffffffffffff160361222e5760006040517f1e4fbdf70000000000000000000000000000000000000000000000000000000081526004016122259190612c1a565b60405180910390fd5b6122378161240b565b50565b600460009054906101000a900473ffffffffffffffffffffffffffffffffffffffff1681565b6000816040516020016122739190614038565b604051602081830303815290604052805190602001209050919050565b61229861255f565b73ffffffffffffffffffffffffffffffffffffffff166122b6610d32565b73ffffffffffffffffffffffffffffffffffffffff1614612315576122d961255f565b6040517f118cdaa700000000000000000000000000000000000000000000000000000000815260040161230c9190612c1a565b60405180910390fd5b565b600260005403612353576040517f3ee5aeb500000000000000000000000000000000000000000000000000000000815260040160405180910390fd5b6002600081905550565b612365610bc9565b1561239c576040517fd93c066500000000000000000000000000000000000000000000000000000000815260040160405180910390fd5b565b6001600081905550565b6123b0612567565b6000600160146101000a81548160ff0219169083151502179055507f5db9ee0a495bf2e6ff9c91a7834c1ba4fdd244a5e8aa4e537bd38aeae4b073aa6123f461255f565b6040516124019190612c1a565b60405180910390a1565b6000600160009054906101000a900473ffffffffffffffffffffffffffffffffffffffff16905081600160006101000a81548173ffffffffffffffffffffffffffffffffffffffff021916908373ffffffffffffffffffffffffffffffffffffffff1602179055508173ffffffffffffffffffffffffffffffffffffffff168173ffffffffffffffffffffffffffffffffffffffff167f8be0079c531659141344cd1fd0a4f28419497f9722a3daafe3b4186f6b6457e060405160405180910390a35050565b6124d961235d565b60018060146101000a81548160ff0219169083151502179055507f62e78cea01bee320cd4e420270b5ea74000d11b0c9f74754ebdbfc544b05a25861251c61255f565b6040516125299190612c1a565b60405180910390a1565b60008060008061254386866125a7565b9250925092506125538282612603565b82935050505092915050565b600033905090565b61256f610bc9565b6125a5576040517f8dfc202b00000000000000000000000000000000000000000000000000000000815260040160405180910390fd5b565b600080600060418451036125ec5760008060006020870151925060408701519150606087015160001a90506125de88828585612767565b9550955095505050506125fc565b60006002855160001b9250925092505b9250925092565b600060038111156126175761261661405e565b5b82600381111561262a5761262961405e565b5b031561276357600160038111156126445761264361405e565b5b8260038111156126575761265661405e565b5b0361268e576040517ff645eedf00000000000000000000000000000000000000000000000000000000815260040160405180910390fd5b600260038111156126a2576126a161405e565b5b8260038111156126b5576126b461405e565b5b036126fa578060001c6040517ffce698f70000000000000000000000000000000000000000000000000000000081526004016126f19190612d0e565b60405180910390fd5b60038081111561270d5761270c61405e565b5b8260038111156127205761271f61405e565b5b0361276257806040517fd78bce0c0000000000000000000000000000000000000000000000000000000081526004016127599190612f06565b60405180910390fd5b5b5050565b60008060007f7fffffffffffffffffffffffffffffff5d576e7357a4501ddfe92f46681b20a08460001c11156127a7576000600385925092509250612851565b6000600188888888604051600081526020016040526040516127cc949392919061408d565b6020604051602081039080840390855afa1580156127ee573d6000803e3d6000fd5b505050602060405103519050600073ffffffffffffffffffffffffffffffffffffffff168173ffffffffffffffffffffffffffffffffffffffff160361284257600060016000801b93509350935050612851565b8060008060001b935093509350505b9450945094915050565b8280548282559060005260206000209081019282156128ea579160200282015b828111156128e957823573ffffffffffffffffffffffffffffffffffffffff168260006101000a81548173ffffffffffffffffffffffffffffffffffffffff021916908373ffffffffffffffffffffffffffffffffffffffff1602179055509160200191906001019061287b565b5b5090506128f791906128fb565b5090565b5b808211156129145760008160009055506001016128fc565b5090565b6000604051905090565b600080fd5b600080fd5b600080fd5b600080fd5b600080fd5b60008083601f8401126129515761295061292c565b5b8235905067ffffffffffffffff81111561296e5761296d612931565b5b60208301915083602082028301111561298a57612989612936565b5b9250929050565b6000819050919050565b6129a481612991565b81146129af57600080fd5b50565b6000813590506129c18161299b565b92915050565b6000806000604084860312156129e0576129df612922565b5b600084013567ffffffffffffffff8111156129fe576129fd612927565b5b612a0a8682870161293b565b93509350506020612a1d868287016129b2565b9150509250925092565b600073ffffffffffffffffffffffffffffffffffffffff82169050919050565b6000612a5282612a27565b9050919050565b612a6281612a47565b8114612a6d57600080fd5b50565b600081359050612a7f81612a59565b92915050565b60008060408385031215612a9c57612a9b612922565b5b6000612aaa85828601612a70565b9250506020612abb858286016129b2565b9150509250929050565b6000819050919050565b6000612aea612ae5612ae084612a27565b612ac5565b612a27565b9050919050565b6000612afc82612acf565b9050919050565b6000612b0e82612af1565b9050919050565b612b1e81612b03565b82525050565b6000602082019050612b396000830184612b15565b92915050565b6000612b4a82612af1565b9050919050565b612b5a81612b3f565b82525050565b6000602082019050612b756000830184612b51565b92915050565b600060208284031215612b9157612b90612922565b5b6000612b9f84828501612a70565b91505092915050565b60008115159050919050565b612bbd81612ba8565b82525050565b6000602082019050612bd86000830184612bb4565b92915050565b600060208284031215612bf457612bf3612922565b5b6000612c02848285016129b2565b91505092915050565b612c1481612a47565b82525050565b6000602082019050612c2f6000830184612c0b565b92915050565b60008083601f840112612c4b57612c4a61292c565b5b8235905067ffffffffffffffff811115612c6857612c67612931565b5b602083019150836020820283011115612c8457612c83612936565b5b9250929050565b60008060008060608587031215612ca557612ca4612922565b5b6000612cb387828801612a70565b9450506020612cc4878288016129b2565b935050604085013567ffffffffffffffff811115612ce557612ce4612927565b5b612cf187828801612c35565b925092505092959194509250565b612d0881612991565b82525050565b6000602082019050612d236000830184612cff565b92915050565b600080fd5b6000601f19601f8301169050919050565b7f4e487b7100000000000000000000000000000000000000000000000000000000600052604160045260246000fd5b612d7782612d2e565b810181811067ffffffffffffffff82111715612d9657612d95612d3f565b5b80604052505050565b6000612da9612918565b9050612db58282612d6e565b919050565b600067ffffffffffffffff821115612dd557612dd4612d3f565b5b612dde82612d2e565b9050602081019050919050565b82818337600083830152505050565b6000612e0d612e0884612dba565b612d9f565b905082815260208101848484011115612e2957612e28612d29565b5b612e34848285612deb565b509392505050565b600082601f830112612e5157612e5061292c565b5b8135612e61848260208601612dfa565b91505092915050565b60008060008060808587031215612e8457612e83612922565b5b6000612e9287828801612a70565b9450506020612ea3878288016129b2565b935050604085013567ffffffffffffffff811115612ec457612ec3612927565b5b612ed087828801612e3c565b9250506060612ee1878288016129b2565b91505092959194509250565b6000819050919050565b612f0081612eed565b82525050565b6000602082019050612f1b6000830184612ef7565b92915050565b600060ff82169050919050565b612f3781612f21565b8114612f4257600080fd5b50565b600081359050612f5481612f2e565b92915050565b612f6381612eed565b8114612f6e57600080fd5b50565b600081359050612f8081612f5a565b92915050565b60008060008060008060c08789031215612fa357612fa2612922565b5b6000612fb189828a01612a70565b9650506020612fc289828a016129b2565b9550506040612fd389828a016129b2565b9450506060612fe489828a01612f45565b9350506080612ff589828a01612f71565b92505060a061300689828a01612f71565b9150509295509295509295565b60008060006060848603121561302c5761302b612922565b5b600061303a86828701612a70565b935050602061304b868287016129b2565b925050604061305c86828701612a70565b9150509250925092565b60008083601f84011261307c5761307b61292c565b5b8235905067ffffffffffffffff81111561309957613098612931565b5b6020830191508360018202830111156130b5576130b4612936565b5b9250929050565b600080600080600080600060c0888a0312156130db576130da612922565b5b60006130e98a828b01612a70565b97505060206130fa8a828b016129b2565b965050604061310b8a828b016129b2565b955050606088013567ffffffffffffffff81111561312c5761312b612927565b5b6131388a828b01612e3c565b94505060806131498a828b016129b2565b93505060a088013567ffffffffffffffff81111561316a57613169612927565b5b6131768a828b01613066565b925092505092959891949750929550565b60006020828403121561319d5761319c612922565b5b60006131ab84828501612f71565b91505092915050565b600082825260208201905092915050565b7f4e6f206f776e6572732070726f76696465640000000000000000000000000000600082015250565b60006131fb6012836131b4565b9150613206826131c5565b602082019050919050565b6000602082019050818103600083015261322a816131ee565b9050919050565b7f546f6f206d616e79206f776e6572730000000000000000000000000000000000600082015250565b6000613267600f836131b4565b915061327282613231565b602082019050919050565b600060208201905081810360008301526132968161325a565b9050919050565b7f496e76616c6964206d696e417070726f76616c73000000000000000000000000600082015250565b60006132d36014836131b4565b91506132de8261329d565b602082019050919050565b60006020820190508181036000830152613302816132c6565b9050919050565b7f4e487b7100000000000000000000000000000000000000000000000000000000600052603260045260246000fd5b600082825260208201905092915050565b6000819050919050565b61335c81612a47565b82525050565b600061336e8383613353565b60208301905092915050565b60006133896020840184612a70565b905092915050565b6000602082019050919050565b60006133aa8385613338565b93506133b582613349565b8060005b858110156133ee576133cb828461337a565b6133d58882613362565b97506133e083613391565b9250506001810190506133b9565b5085925050509392505050565b6000604082019050818103600083015261341681858761339e565b90506134256020830184612cff565b949350505050565b7f496e76616c696420726563697069656e74206164647265737300000000000000600082015250565b60006134636019836131b4565b915061346e8261342d565b602082019050919050565b6000602082019050818103600083015261349281613456565b9050919050565b7f416d6f756e74206d757374206265203e20300000000000000000000000000000600082015250565b60006134cf6012836131b4565b91506134da82613499565b602082019050919050565b600060208201905081810360008301526134fe816134c2565b9050919050565b6000815190506135148161299b565b92915050565b6000602082840312156135305761352f612922565b5b600061353e84828501613505565b91505092915050565b7f496e73756666696369656e7420636f6e74726163742062616c616e6365000000600082015250565b600061357d601d836131b4565b915061358882613547565b602082019050919050565b600060208201905081810360008301526135ac81613570565b9050919050565b60006040820190506135c86000830185612c0b565b6135d56020830184612cff565b9392505050565b6135e581612ba8565b81146135f057600080fd5b50565b600081519050613602816135dc565b92915050565b60006020828403121561361e5761361d612922565b5b600061362c848285016135f3565b91505092915050565b7f5472616e73666572206661696c65640000000000000000000000000000000000600082015250565b600061366b600f836131b4565b915061367682613635565b602082019050919050565b6000602082019050818103600083015261369a8161365e565b9050919050565b6000819050919050565b60006136c66136c16136bc846136a1565b612ac5565b612991565b9050919050565b6136d6816136ab565b82525050565b60006040820190506136f16000830185612cff565b6136fe60208301846136cd565b9392505050565b7f496e76616c6964207369676e6572206164647265737300000000000000000000600082015250565b600061373b6016836131b4565b915061374682613705565b602082019050919050565b6000602082019050818103600083015261376a8161372e565b9050919050565b7f416d6f756e74206d7573742062652067726561746572207468616e2030000000600082015250565b60006137a7601d836131b4565b91506137b282613771565b602082019050919050565b600060208201905081810360008301526137d68161379a565b9050919050565b7f4e487b7100000000000000000000000000000000000000000000000000000000600052601160045260246000fd5b600061381782612991565b915061382283612991565b925082820190508082111561383a576138396137dd565b5b92915050565b7f496e73756666696369656e7420746f75726e616d656e74206665657300000000600082015250565b6000613876601c836131b4565b915061388182613840565b602082019050919050565b600060208201905081810360008301526138a581613869565b9050919050565b7f4e6f7420656e6f7567682076616c6964206f776e6572207369676e617475726560008201527f7300000000000000000000000000000000000000000000000000000000000000602082015250565b60006139086021836131b4565b9150613913826138ac565b604082019050919050565b60006020820190508181036000830152613937816138fb565b9050919050565b600080fd5b600080fd5b600080fd5b6000808335600160200384360303811261396a5761396961393e565b5b80840192508235915067ffffffffffffffff82111561398c5761398b613943565b5b6020830192506001820236038313156139a8576139a7613948565b5b509250929050565b60006139bb82612991565b91507fffffffffffffffffffffffffffffffffffffffffffffffffffffffffffffffff82036139ed576139ec6137dd565b5b600182019050919050565b7f4e6f7420656e6f7567682076616c6964207369676e6174757265730000000000600082015250565b6000613a2e601b836131b4565b9150613a39826139f8565b602082019050919050565b60006020820190508181036000830152613a5d81613a21565b9050919050565b6000613a6f82612991565b9150613a7a83612991565b9250828203905081811115613a9257613a916137dd565b5b92915050565b7f496e73756666696369656e742062616c616e6365000000000000000000000000600082015250565b6000613ace6014836131b4565b9150613ad982613a98565b602082019050919050565b60006020820190508181036000830152613afd81613ac1565b9050919050565b60008160601b9050919050565b6000613b1c82613b04565b9050919050565b6000613b2e82613b11565b9050919050565b613b46613b4182612a47565b613b23565b82525050565b6000819050919050565b613b67613b6282612991565b613b4c565b82525050565b600081519050919050565b600081905092915050565b60005b83811015613ba1578082015181840152602081019050613b86565b60008484015250505050565b6000613bb882613b6d565b613bc28185613b78565b9350613bd2818560208601613b83565b80840191505092915050565b6000613bea8287613b35565b601482019150613bfa8286613b56565b602082019150613c0a8285613bad565b9150613c168284613b56565b60208201915081905095945050505050565b7f4f6e6c792072656c617965722063616e2063616c6c0000000000000000000000600082015250565b6000613c5e6015836131b4565b9150613c6982613c28565b602082019050919050565b60006020820190508181036000830152613c8d81613c51565b9050919050565b613c9d81612f21565b82525050565b600060e082019050613cb8600083018a612c0b565b613cc56020830189612c0b565b613cd26040830188612cff565b613cdf6060830187612cff565b613cec6080830186613c94565b613cf960a0830185612ef7565b613d0660c0830184612ef7565b98975050505050505050565b6000606082019050613d276000830186612c0b565b613d346020830185612c0b565b613d416040830184612cff565b949350505050565b7f496e76616c69642073656e646572206164647265737300000000000000000000600082015250565b6000613d7f6016836131b4565b9150613d8a82613d49565b602082019050919050565b60006020820190508181036000830152613dae81613d72565b9050919050565b6000613dc18286613b35565b601482019150613dd18285613b56565b602082019150613de18284613b35565b601482019150819050949350505050565b7f5369676e61747572652065787069726564000000000000000000000000000000600082015250565b6000613e286011836131b4565b9150613e3382613df2565b602082019050919050565b60006020820190508181036000830152613e5781613e1b565b9050919050565b7f4e6f6e636520616c726561647920757365640000000000000000000000000000600082015250565b6000613e946012836131b4565b9150613e9f82613e5e565b602082019050919050565b60006020820190508181036000830152613ec381613e87565b9050919050565b7f54727573746564207369676e6572206e6f742073657400000000000000000000600082015250565b6000613f006016836131b4565b9150613f0b82613eca565b602082019050919050565b60006020820190508181036000830152613f2f81613ef3565b9050919050565b7f496e76616c6964207369676e6174757265000000000000000000000000000000600082015250565b6000613f6c6011836131b4565b9150613f7782613f36565b602082019050919050565b60006020820190508181036000830152613f9b81613f5f565b9050919050565b6000604082019050613fb76000830185612cff565b613fc46020830184612cff565b9392505050565b7f19457468657265756d205369676e6564204d6573736167653a0a333200000000600082015250565b6000614001601c83613b78565b915061400c82613fcb565b601c82019050919050565b6000819050919050565b61403261402d82612eed565b614017565b82525050565b600061404382613ff4565b915061404f8284614021565b60208201915081905092915050565b7f4e487b7100000000000000000000000000000000000000000000000000000000600052602160045260246000fd5b60006080820190506140a26000830187612ef7565b6140af6020830186613c94565b6140bc6040830185612ef7565b6140c96060830184612ef7565b9594505050505056fea26469706673582212204d16a52f8ecedacaa092e5ffe2148b4181283717342e2e4a2eea87078e50e5e164736f6c634300081c0033",
  "linkReferences": {},
  "deployedLinkReferences": {}
}